{
  "address": "0x0690358Ae3e7F7398350c11c54d3219F54947c3c",
  "abi": [
    {
      "inputs": [
        {
          "internalType": "uint256",
          "name": "_tokenId",
          "type": "uint256"
        }
      ],
      "name": "available",
      "outputs": [
        {
          "internalType": "bool",
          "name": "",
          "type": "bool"
        }
      ],
      "stateMutability": "view",
      "type": "function"
    },
    {
      "inputs": [],
      "name": "getPrice",
      "outputs": [
        {
          "internalType": "uint256",
          "name": "",
          "type": "uint256"
        }
      ],
      "stateMutability": "view",
      "type": "function"
    },
    {
      "inputs": [
        {
          "internalType": "uint256",
          "name": "_tokenId",
          "type": "uint256"
        }
      ],
      "name": "purchase",
      "outputs": [],
      "stateMutability": "payable",
      "type": "function"
    },
    {
      "inputs": [
        {
          "internalType": "uint256",
          "name": "",
          "type": "uint256"
        }
      ],
      "name": "tokens",
      "outputs": [
        {
          "internalType": "address",
          "name": "",
          "type": "address"
        }
      ],
      "stateMutability": "view",
      "type": "function"
    }
  ],
  "transactionHash": "0x55d68ebbc821b2911e0f34aaaf4947e29809556c7c3ea57d26c860e333260860",
  "args": [],
  "numDeployments": 2,
  "solcInputHash": "2409e163cdb6dad646c401ef5fdd3756",
  "bytecode": "0x6080604052662386f26fc1000060015534801561001b57600080fd5b5061042c8061002b6000396000f3fe60806040526004361061003f5760003560e01c80634f64b2be1461004457806396e494e81461008157806398d5fdca146100be578063efef39a1146100e9575b600080fd5b34801561005057600080fd5b5061006b6004803603810190610066919061026a565b610105565b60405161007891906102e7565b60405180910390f35b34801561008d57600080fd5b506100a860048036038101906100a3919061026a565b610138565b6040516100b59190610302565b60405180910390f35b3480156100ca57600080fd5b506100d36101b3565b6040516100e0919061033d565b60405180910390f35b61010360048036038101906100fe919061026a565b6101bd565b005b60006020528060005260406000206000915054906101000a900473ffffffffffffffffffffffffffffffffffffffff1681565b60008073ffffffffffffffffffffffffffffffffffffffff1660008084815260200190815260200160002060009054906101000a900473ffffffffffffffffffffffffffffffffffffffff1673ffffffffffffffffffffffffffffffffffffffff1614156101a957600190506101ae565b600090505b919050565b6000600154905090565b3460015414610201576040517f08c379a00000000000000000000000000000000000000000000000000000000081526004016101f89061031d565b60405180910390fd5b3360008083815260200190815260200160002060006101000a81548173ffffffffffffffffffffffffffffffffffffffff021916908373ffffffffffffffffffffffffffffffffffffffff16021790555050565b600081359050610264816103df565b92915050565b6000602082840312156102805761027f6103b1565b5b600061028e84828501610255565b91505092915050565b6102a081610369565b82525050565b6102af8161037b565b82525050565b60006102c2601883610358565b91506102cd826103b6565b602082019050919050565b6102e1816103a7565b82525050565b60006020820190506102fc6000830184610297565b92915050565b600060208201905061031760008301846102a6565b92915050565b60006020820190508181036000830152610336816102b5565b9050919050565b600060208201905061035260008301846102d8565b92915050565b600082825260208201905092915050565b600061037482610387565b9050919050565b60008115159050919050565b600073ffffffffffffffffffffffffffffffffffffffff82169050919050565b6000819050919050565b600080fd5b7f54686973204e667420636f73747320302e312065746865720000000000000000600082015250565b6103e8816103a7565b81146103f357600080fd5b5056fea2646970667358221220b4cff2fcfac76f7e20947f6dc41894441c47177785948327fcc818e69f5f509d64736f6c63430008070033",
  "devdoc": {
    "kind": "dev",
    "methods": {},
    "version": 1
  },
  "userdoc": {
    "kind": "user",
    "methods": {},
    "version": 1
  },
  "storageLayout": {
    "storage": [
      {
        "astId": 5,
        "contract": "contracts/FakeNFTMarketplace.sol:FakeNFTMarketplace",
        "label": "tokens",
        "offset": 0,
        "slot": "0",
        "type": "t_mapping(t_uint256,t_address)"
      },
      {
        "astId": 8,
        "contract": "contracts/FakeNFTMarketplace.sol:FakeNFTMarketplace",
        "label": "nftPrice",
        "offset": 0,
        "slot": "1",
        "type": "t_uint256"
      }
    ],
    "types": {
      "t_address": {
        "encoding": "inplace",
        "label": "address",
        "numberOfBytes": "20"
      },
      "t_mapping(t_uint256,t_address)": {
        "encoding": "mapping",
        "key": "t_uint256",
        "label": "mapping(uint256 => address)",
        "numberOfBytes": "32",
        "value": "t_address"
      },
      "t_uint256": {
        "encoding": "inplace",
        "label": "uint256",
        "numberOfBytes": "32"
      }
    }
  }
}